:020000040800F2
:10000000D0340020C5010008AB2F000831280008BB
:10001000DD2D0008050B0008213700080000000056
:10002000000000000000000000000000AF2F0008EA
:10003000710C000800000000AD2F0008B13000086E
:10004000DF010008DF010008DF010008DF01000810
:10005000DF010008DF010008DF010008DF01000800
:10006000DF010008DF010008DF010008DF010008F0
:10007000DF010008DF010008DF010008DF010008E0
:10008000C50B0008D10B0008DF010008DF010008E4
:10009000DF010008DF010008DF010008730C000821
:1000A000DF010008DF010008DF010008DF010008B0
:1000B000DF010008DF010008DF010008DF010008A0
:1000C000DF010008DF010008DF010008DF01000890
:1000D000DF0100080937000815370008DF010008B4
:1000E000DF010008DF010008DF010008DF01000870
:1000F000DF010008DF010008DF010008DF01000860
:10010000DF010008DF010008DF010008DF0100084F
:10011000DF010008DF01000861310008DF0100088D
:10012000DF010008DF010008DD0B0008DF01000827
:10013000DF010008DF010008DF010008DF0100081F
:10014000DF010008DF010008DF010008DF0100080F
:10015000DF010008DF010008E90B0008DF010008EB
:10016000DF010008DF010008DF010008DF010008EF
:10017000DF010008DF010008DF01000800000000C7
:10018000DF010008DF010008DF010008DF010008CF
:10019000DF010008DF010008DF010008DF010008BF
:1001A000DF010008DF010008DF010008DFF810D0E0
:1001B00000F0AAFB0048004779400008AFF3008038
:1001C000D03400200648804706480047FEE7FEE797
:1001D000FEE7FEE7FEE7FEE7FEE7FEE7FEE7FEE7F7
:1001E00051310008AD0100082DE9F05F05460020FF
:1001F00092469B4688460646814640241BE0284698
:1002000041464746224600F00AFA53465A46C01A6B
:10021000914110D311461846224600F0F1F92D1AEB
:1002200067EB01084F4622460120002100F0E8F963
:1002300017EB00094E41201EA4F10104DFDC484603
:1002400031462A464346BDE8F09F0000004870470B
:10025000AC50000840EA01039B0703D009E008C93D
:10026000121F08C0042AFAD203E011F8013B00F87B
:10027000013B521EF9D27047D2B201E000F8012BC7
:10028000491EFBD270470022F6E710B513460A4616
:1002900004461946FFF7F0FF204610BD30B505466D
:1002A0002A460B4612F8010B13F8014B08B1A04285
:1002B000F8D01CB1002802D06D1CF1E7284630BDF3
:1002C000421C10F8011B0029FBD1801A704703461D
:1002D00011F8012B00F8012B002AF9D118467047BC
:1002E00070B5064603F052FA046805460A2200215A
:1002F000304600F0B6F92C6070BD2DE9FE4F804607
:1003000081EA0300C00F0C46009021F0004123F069
:100310000045B8EB0200A94105D24046214690466F
:100320001C460B46024623F00040104347D0270DE1
:10033000C7F30A00C3F30A510290401A0190402803
:100340006BDAC3F3130040F4801B0098924620B18F
:100350000023D2EB030A63EB0B0B01985946C0F163
:100360004002504600F04CF906460D4650465946AC
:10037000019A00F064F910EB08006141002487EA5B
:10038000115284EAE7731A4340D0009A62B3019A8B
:10039000012A4FEA075215DC001B61EB02014FF006
:1003A000004202EA0752CDE90042001C41F58011EB
:1003B00032462B4600F0D3F903B0BDE8F08F40463B
:1003C0002146F9E7001B61EB0201001C41F5801397
:1003D00000185B412018A2F5001747EB030140EA23
:1003E000D570B6196D4111E06D084FEA360645EA41
:1003F000C0754FEA0752001B61EB0201001C41F57A
:10040000801149084FEA30000019514132462B460D
:1004100003B0BDE8F04F00F093B90098012240000E
:100420000023D0EB020263EBE073009821464FEA11
:10043000E074B8EB000061EB0401E9E783F00043EE
:100440005BE781F0004158E72DE9FE4F81EA0304A4
:1004500004F0004421F0004100944FF0000B23F021
:10046000004350EA01045ED052EA03045BD0C3F3B8
:100470000A54C1F30A552C44A4F2F3340194A0FBAE
:100480000254C1F3130141F48011C3F3130343F485
:10049000801301FB024400FB034E840A970A44EADE
:1004A000815447EA8357A4FB076802958D0A05FB30
:1004B00007854FEA932C04FB0C542705029D4FEA55
:1004C000065847EA1637B5EB08056EEB070C870EA2
:1004D000920E47EA811742EA8312A7FB0201B6EBAC
:1004E0000B0164EB00042B0D43EA0C335E1844EB64
:1004F0001C50DA465146E7FB0201C5F313044FEAEC
:100500000B3343EA14534FEA0432019C43EA0603D7
:10051000A4F10C040294009CCDE900B400F01FF992
:1005200003B0BDE8F08F00200146F9E70EB540F2B8
:10053000334102910021CDE900110A460B4600F03B
:100540000EF903B000BD00F0004230F000400AD0C8
:10055000C10D01F56071C0F3160042EA0151C208F5
:1005600040071143704700200146704730B5041E14
:1005700071F1000404DB4FF00044404264EB0101E0
:10058000141E73F1000405DB1C464FF00043524279
:1005900063EB0403994208BF904230BD01F0004371
:1005A00030B421F0004150EA010206D00A0DA2F554
:1005B0006072C1F31301002A02DC30BC00207047D6
:1005C000440F44EAC104C100E01830BC00EBC25043
:1005D00000F07FB830B50B460146002020220124F0
:1005E00009E021FA02F59D4205D303FA02F5491B01
:1005F00004FA02F52844151EA2F10102F1DC30BD17
:10060000202A04DB203A00FA02F1002070479140D2
:10061000C2F1200320FA03F3194390407047202AC7
:1006200004DB203A21FA02F00021704721FA02F39C
:10063000D040C2F120029140084319467047202A59
:1006400006DBCB17203A41FA02F043EAE07306E0FA
:1006500041FA02F3D040C2F120029140084319460A
:1006600070472DE9F04791460F4680460446002624
:1006700014F8015B2DB1FFF7E9FD0068405DC0078C
:10068000F6D12B2D02D02D2D18D0641E4A463946A6
:10069000204600F04BF927B13968A14201D1C7F8D3
:1006A000008071054FF002040BD54042002803DDA5
:1006B00003F06CF80460A007BDE8F08746F480669C
:1006C000E4E70028F8DA03F061F804606FF0004016
:1006D000F2E70029A8BF7047401C490008BF20F07E
:1006E0000100704710B4B0FA80FC00FA0CF050EA38
:1006F000010404BF10BC704749B1CCF1200421FAB9
:1007000004F411FA0CF118BF012121430843A3EBB3
:100710000C01CB1D4FEA00614FEA102042BF0020C0
:1007200010BC704700EBC35010440029A4BF10BC9C
:100730007047401C490008BF20F0010010BC704702
:1007400010B5141E73F1000408DA401C41F10001D9
:1007500092185B411A4301D120F0010010BD2DE930
:10076000F04D92469B4611B1B1FA81F202E0B0FA27
:1007700080F220329046FFF743FF04460F4640EADE
:100780000A0041EA0B0153465A46084313D011466A
:1007900053EA010019D0C8F140025046FFF73FFF6D
:1007A00005460E46504659464246FFF729FF084384
:1007B00005D0012004E020463946BDE8F08D002038
:1007C000054346EAE0762C4337430A986305E40A7A
:1007D000A0EB08000022FD0A44EA47540A3002D583
:1007E00000200146E9E7010510196941DDE90845E6
:1007F00000196941BDE8F04DA2E72DE9F04D81EA0D
:10080000030404F0004B21F0004514464FF0000AA9
:1008100023F0004150EA050220D054EA01021DD025
:10082000C5F30A570246C5F31303C1F31300C1F31E
:100830000A5640F4801543F48013A7EB0608101BFA
:10084000D64608F2FD3873EB050002D308F1010823
:1008500001E092185B41B8F1000F03DA0020014675
:10086000BDE8F08D00204FF48011064684460EE06E
:10087000171B73EB050705D3121B63EB0503064338
:100880004CEA010C49084FEA300092185B4150EAEB
:100890000107EDD152EA030012D082EA040083EA94
:1008A0000501084305D0101BAB4106D201220023ED
:1008B00006E000224FF0004302E06FF00102531007
:1008C0001AEB06004CEB085110EB0A0041EB0B0150
:1008D000BDE8F04DFFF734BFC1F30A52C1F3130175
:1008E00040F2FF3341F480119A4202DA00200146BF
:1008F000704740F233439A42A2F2334202DC524242
:10090000FFF78DBEFFF77CBE064C074D06E0E068A2
:1009100040F0010394E8070098471034AC42F6D346
:10092000FFF748FC64510008845100082DE9F05F8E
:1009300082460078002715468B460AF10104B94625
:10094000302801D09DB113E014F8010B012778285D
:1009500003D0582801D045B10AE00DB1102D07D1C0
:100960000027102514F8010B02E0082500E00A25F5
:100970000026B0460EE005FB080005FB06F1012746
:1009800001EB10461FFA80F8B6F5803F00D3B94658
:1009900014F8010B294600F018F80028EBDABBF137
:1009A000000F05D00FB1641E00E05446CBF80040A4
:1009B000B9F1000F06D002F0E9FE02210160C81E65
:1009C000BDE8F09F48EA0640FAE73A2800D23038FE
:1009D00020F02002412A01D3A2F13700884201D33E
:1009E0004FF0FF307047000001A002F09BBE0000F6
:1009F00041540D0A000000000FB42DE9F043CFB0C0
:100A000081464FF49E78424657A96846A69EFFF756
:100A100021FC27A529463046FFF740FC04003DD0C5
:100A20002846FFF74DFC0444FFF710FC054600681C
:100A300000E0641C217811B1415C2029F9D12178B2
:100A4000405C20282AD12046FFF74AFC04461BA719
:100A500039463046FFF722FC06001FD03846FFF724
:100A60002FFC3044296800E0401C027812B18A5CF7
:100A7000202AF9D10278895C20290FD1012C06D0D7
:100A8000312C04D0022C06D0322C04D006E0FFF723
:100A900027FC019002E0FFF723FC029042466946E2
:100AA0004846FFF7D7FB4FB0BDE8F0035DF814FBF5
:100AB00022426F786964223A00000000227377694D
:100AC000746368223A00000070B50C4C0C4D4FF472
:100AD0000061606868B10122284600F014FCA0683B
:100AE0004FF4805138B101222846BDE8704000F033
:100AF0000ABC0022F0E70022F6E7000074000020A4
:100B000000080240FEE710B50021012002F050FA73
:100B10000021012002F06EFA0021012002F08CFA7F
:100B20000021BDE81040012002F0A4BA00200449D1
:100B300002460A54401CC0B2C828FAD370470000CD
:100B4000B00500200FB4F0B5EBB006464FF49E752B
:100B50002A4671A919A8C09CFFF77CFB14A7394647
:100B60002046FFF79BFB040019D03846FFF7A8FB8F
:100B7000011900206B4602E01A54401C491C0A78F7
:100B80001AB1222A01D06428F6DB9DF8000030B1AA
:100B900019460DF58370FFF79AFB012067902A46EE
:100BA00019A93046FFF756FB6BB0F0BC5DF814FB9B
:100BB00022636F6D6D616E645F6E616D65223A22B6
:100BC00000000000014800F01BB9000010090020DF
:100BD000014800F015B9000070090020014800F03C
:100BE0000FB90000B0080020014800F009B900006A
:100BF0005008002001681823CAB2103AB2FBF3F281
:100C0000054B6FF30901032A9B5CC36500D9091DDD
:100C10008165084670470000144F000810B5014672
:100C200000208B698A6A4FF0C07453B1B3F5005F3E
:100C300015D072B1012A0CD0022A0AD0032A09D198
:100C400004E01AB1012A06D0022A03D1C96AC901F7
:100C500000D5012010BDC96AA142FAD010BD002AFA
:100C6000F7D0012AF2D0022AF3D0032AF3D010BD24
:100C7000704710B54FF4807000F01AFABDE81040CC
:100C80004FF4007000F014BA72B6FEE770B540067B
:100C90000D46040E02F022F9204602F00BF902F094
:100CA000D5F8284602F006F902F0D0F80028F1D174
:100CB00002F014F944F0010002F0FCF802F0C6F86A
:100CC00002F0D3F8094C2070002002F0E8F802F09E
:100CD000CCF86070012002F0E2F802F01FF92078F1
:100CE000617840EA0120608070BD00003000002083
:100CF00010B507210020FFF7C9FFFFF717FC9FED94
:100D0000081B53EC112BFFF79FFB9FED071B53ECC8
:100D1000112BFFF793FBFFF741FC00EE100A10BD0B
:100D20007B14AE47E17A943F666666666612714050
:100D300001A002F0F7BC000041542B4D4950434143
:100D40004C4C3D310D0A00002DE9F0410446876D01
:100D500000F0DEFA064694F835000025022806D099
:100D60008020606584F834500120BDE8F08120685F
:100D7000016821F0160101602068416921F08001BD
:100D80004161206C08B9A06C20B12068016821F095
:100D9000080101602068016821F0010101600CE098
:100DA00000F0B6FA801B052807D9202060650320D3
:100DB00084F8350084F83450D7E720680068C0070D
:100DC000EED194F85C103F208840B860012084F890
:100DD000350084F834500020C7E790F83510022918
:100DE00003D08021416501207047052180F835102E
:100DF0000068016821F001010160002070470000D7
:100E00002DE9F84304464FF00009CDF800906348FF
:100E10004FF41651A56D0068B0FBF1F72E6894F8F9
:100E20005C10082000FA01F131420FD021680A68F5
:100E300052070BD50A6822F004020A6094F85C108D
:100E40008840A860606D40F00100606594F85C1017
:100E50004FF0010808FA01F0304208D021684969D2
:100E6000090604D5A860606D40F00200606594F842
:100E70005C1004208840304208D021680968890746
:100E800004D5A860606D40F00400606594F85C10C3
:100E900010208840304218D021680968090714D50D
:100EA000A86020680168490304D50068000308D5DC
:100EB000A16C07E00168C90503D4016821F00801AD
:100EC0000160216C09B12046884794F85C1020200D
:100ED0008840304231D021680968C9062DD5A86004
:100EE00094F8350005282068016806D0490347D5E5
:100EF000006800031DD4616C1CE021F01601016044
:100F00002068416921F080014161206C08B9A06C22
:100F100020B12068016821F00801016094F85C109C
:100F20003F208840A86084F8358084F83490216D93
:100F30001FE0E16B09B120468847606D00282BD087
:100F4000606DC00714D0052084F835002068016862
:100F500021F0010101600098401C0090B84203D8C4
:100F600020680068C007F6D184F8358084F8349092
:100F7000E16C002910D001B02046BDE8F0430847DD
:100F80000168C905D5D4016821F01001016084F819
:100F9000358084F83490CCE7BDE8F8832C0000203D
:100FA0002DE9F041044600F0B3F906465CB1022099
:100FB00084F83500002584F834502068016821F059
:100FC000010101600DE00120BDE8F08100F0A0F911
:100FD000801B052805D920206065032084F8350092
:100FE000F2E720680068C007F0D122681168204845
:100FF0000140D4E901031843D4E9033633431843CD
:1010000063691843A3691843E3691843236A1843C3
:101010000843616A042903D1D4E90B131943084337
:10102000106020684069666A20F0070130460E4370
:10103000012704280CD1A06A0643E06A40B120468B
:10104000FFF7ECFD20B14020606584F83570BAE709
:10105000206846612046FFF7CDFD94F85C203F21D3
:1010600091408160656584F835700020ACE7000030
:101070003F8010F070B5044600F04AF90546601C48
:1010800002D004480078044400F042F9401BA0421A
:10109000FAD370BD200000200121044AB0F5807F02
:1010A00002D0B0F5007F00D1117070470000002021
:1010B000044910B50A68024202D00860FFF7ECFF4D
:1010C00010BD0000143C01402DE9F84FDFF8F8A1F5
:1010D0000022012403254FF00F090AF1040BAAF1A5
:1010E000040E00BF0B6804FA02F63340B34270D11D
:1010F0000F7907F00307012F01D0022F16D187685F
:101100004FEA420805FA08FC27EA0C07D1F80CC0A0
:101110000CFA08FC4CEA070CC0F808C04768B74353
:101120000E79C6F3001696403E4346600E79F643AC
:10113000B6070AD0C7684FEA420C05FA0CF6B74367
:101140008E6806FA0CF63E43C6600E7906F003067A
:10115000022E10D1D60800EB8608D8F82060570779
:101160004FEAD76C09FA0CF7BE430F6907FA0CF780
:101170003743C8F8207006684FEA420C05FA0CF7AE
:10118000BE430F7907F0030707FA0CF737430760F0
:101190004E6816F4403F1CD04C4E376847F48047E9
:1011A0003760366822F0030706F480460096484E02
:1011B00007EB060CDCF8086897073F0F09FA07F8F9
:1011C00026EA0806DFF80C81404503D14FF00008FD
:1011D00041E072E0DFF80081404502D14FF00108A4
:1011E00039E0DFF8F880404502D14FF0020832E0E4
:1011F000DFF8EC80404502D14FF003082BE0DFF828
:10120000E480404502D14FF0040824E0DFF8D880A4
:10121000404502D14FF005081DE0DFF8D080404581
:1012200002D14FF0060816E0DFF8C480404502D135
:101230004FF007080FE0DFF8BC80404502D14FF0C7
:10124000080808E0DFF8B080404502D14FF00908F7
:1012500001E04FF00A0808FA07F848EA0608CCF857
:101260000888DAF800605746D1F804C09E435FEA68
:10127000CC2C00D51E433E60DBF800605F46D1F801
:1012800004C09E435FEA8C2C00D51E433E60DEF80E
:1012900000607746D1F804C09E435FEA8C3C00D5DD
:1012A0001E433E60084F083F3E68D1F804C09E438D
:1012B0005FEACC3C00D51E433E60521C102AFFF46E
:1012C00011AFBDE8F88F0000083C014044380240EF
:1012D00000300140000002400004024000080240CB
:1012E000000C0240001002400014024000180240AE
:1012F000001C024000200240002402400069084017
:1013000000D0012070470AB1816170470904FBE7F2
:101310000148806870470000200000200248816872
:101320000278114481607047200000200B4810B5FE
:10133000016841F400710160016841F4806101605D
:10134000016841F480710160032000F06FF80F2004
:1013500000F006F800F024F8002010BD003C024028
:1013600070B50D4D04464FF47A712878B1FBF0F05A
:101370000A490968B1FBF0F000F044FB48B9102CB1
:1013800007D200222146501E00F030F800206C6089
:1013900070BD012070BD0000200000202C00002046
:1013A0000A4808B5016841F480410160006800F412
:1013B000804000900548001F016841F080510160A5
:1013C000006800F08050009008BD000044380240E2
:1013D000002809DB00F01F02012191404009800034
:1013E00000F1E020C0F8001170470000F0B40E4B8F
:1013F0001B680C46C3F30223C3F10705042D00D973
:101400000425191D072901D2002300E0DB1E012657
:1014100006FA05F1491E214099409E40761E16406D
:101420003143F0BC02F0A2B90CED00E0064900F037
:10143000070208684FF6FF03184040EA0220034AFB
:1014400010430860704700000CED00E00000FA0552
:101450002DE9F8431748016841F0805101600068A8
:10146000154F00F08050012600903E64FFF750FFBA
:1014700005464FF47A78114C05E000BFFFF748FFAE
:10148000401B40450DD86068C003F7D57E64FFF768
:101490003FFF0546464607E0FFF73AFF401BB042D4
:1014A00002D90320BDE8F88360688003F4D50020EA
:1014B000F8E700004038024000000E420070004093
:1014C0002DE9F0470E46050065D0DFF81481D8F805
:1014D0000000F7B200F00F00B04207D288F80070A9
:1014E000D8F8000000F00F00B04254D128683D4CFD
:1014F000810712D5400703D5206840F4E0502060F2
:101500002878000703D5206840F4604020602068F8
:10151000A96820F0F000084320602878C0072DD08B
:10152000304968680839012812D0022813D00328EE
:1015300011D00968890700292DDA216821F00301FB
:1015400001432160FFF7E4FE814641F2883A0EE054
:1015500009688903EFE709688901ECE7FFF7D8FE1E
:10156000A0EB0901514502D90320BDE8F0872068AE
:10157000696800F00C00B0EB810FEFD1D8F80010D3
:10158000404601F00F01B14207D90770006800F032
:101590000F00B04201D00120E7E72878400705D5C9
:1015A0002068E96820F4E0500843206028780007AC
:1015B00006D52068296920F4604040EAC100206017
:1015C00000F038F82168084AC1F30311515CC840A3
:1015D0000649086006480068FFF7C2FE0020C4E71D
:1015E000003C0240083802401C4F00082C0000203C
:1015F000240000200448054900680968044AC1F332
:101600008221515CC84070472C00002008380240FD
:101610002C4F00080448054900680968044AC1F3D2
:101620004231515CC84070472C000020083802400D
:101630002C4F0008154810B5006810F00C02144833
:1016400013D01449042A0FD0082A0ED10F4C241F9E
:101650002268236802F03F025B0207D52068C0F3CE
:101660008810A0FB010106E0084610BD2168C1F307
:101670008811A1FB00010023FEF7B6FD2168C1F32C
:101680000141491C4900B0FBF1F010BD083802408F
:101690000024F40040787D012DE9F84F04006ED05D
:1016A0002078DFF84C93C007A9F104054AD009F16E
:1016B00004000168C1F38101012908D00068C0F36A
:1016C000810002280AD1D9F80000400206D5286816
:1016D000800337D560680028E1D033E06068B0F55A
:1016E000803F10D0B0F5A02F286810D020F48030B3
:1016F0002860286820F4802028606068A8B1FFF77F
:1017000007FE06460DE0286840F48030F4E740F418
:1017100080202860F7E700BFFFF7FAFD801B6428F0
:1017200073D828688003F7D50CE0FFF7F1FD064673
:1017300005E000BFFFF7ECFD801B6428F0D82868A7
:101740008003F7D42078DFF8AC8280074FF0000ADE
:101750003ED5A748001D016811F00C0F08D00068A5
:10176000C0F3810002280BD1D9F80000400207D451
:101770002868800716D5E068012800D112E033E11F
:10178000E068B8B10120C8F80000FFF7C1FD0646C7
:1017900005E000BFFFF7BCFD801B0228C0D8286809
:1017A0008007F7D52868216920F0F80040EAC100D9
:1017B00028600DE0C8F800A0FFF7AAFD064604E087
:1017C000FFF7A6FD801B02281FD828688007F7D4E2
:1017D0002078000722D5864F87486169703771B13C
:1017E00001210160FFF794FD064604E0FFF790FD3C
:1017F000801B022809D838688007F7D50EE0C0F8AA
:1018000000A0FFF785FD064605E082E0FFF780FDBA
:10181000801B02287DD838688007F7D420784007DD
:1018200068D5DFF8CCB100270BF13C0BDBF80000EA
:10183000C0000BD4DBF8001041F08051CBF8001051
:10184000DBF80000012700F0805000906B4E3068FC
:10185000C00510D4306840F480703060FFF758FD48
:10186000009005E0FFF754FD0099401A022850D877
:101870003068C005F6D55E4EA0686C3601280FD0E2
:101880000528306810D020F001003060306820F06A
:1018900004003060A068B8B1FFF73AFD00900FE097
:1018A000306840F00100F4E740F004003060F7E7F2
:1018B000FFF72EFD0099411A41F28830814266D827
:1018C00030688007F4D50EE0FFF722FD009007E0B6
:1018D000FFF71EFD0099411A41F28830814256D827
:1018E00030688007F4D42FB1DBF8001021F080516C
:1018F000CBF80010A069C8B33D49091D0968C1F3C0
:10190000810102294AD00228504607D0C8F8600059
:1019100000E03CE0FFF7FCFC04463BE04746C8F82B
:101920006000FFF7F5FC064605E000BFFFF7F0FC9E
:10193000801B02282BD828688001F7D4D4E907013E
:101940000843A16A2E4A490802EB0141626A41EA52
:101950008211084394F82C1040EA0161C9F8001084
:1019600001203866FFF7D4FC044606E03EE000BFE5
:10197000FFF7CEFC001B022809D828688001F7D5A4
:1019800034E000BFFFF7C4FC001B022802D903208B
:10199000BDE8F88F28688001F4D427E00128F7D04B
:1019A000D9F80000E26900F4800191421CD1226A5A
:1019B00000F03F01914217D147F6C071626A0140C1
:1019C000B1EB821F10D1A26A4FF0FF3300F4403117
:1019D00003EB5202B1EB024F06D194F82C1000F049
:1019E0007060B0EB016F01D00120D1E70020CFE79C
:1019F0000438024000004742800E47420070004019
:101A00000000FFFF10B5401EB0F1807F01D3012020
:101A100010BD4FF0E02460610F21601701F0A6FEB9
:101A20000020A06107202061002010BD7047704792
:101A300070B590F83C20012A32D0012480F83C4057
:101A4000022280F83D2003685A689D6822F07006E3
:101A50000A6832435A60134B02689A4214D0B2F1BA
:101A6000804F11D0104B9A420ED0104B9A420BD09F
:101A70000F4B9A4208D00F4B9A4205D00E4B9A4218
:101A800002D00E4B9A4204D1496825F080031943D5
:101A9000916080F83D40002180F83C10084670BD00
:101AA000022070BD0000014000040040000800401A
:101AB000000C0040000401400040014000180040BC
:101AC00010B5040003D094F83D0010B107E00120E8
:101AD00010BD002084F83C00204600F01FF80220D2
:101AE00084F83D00211D206801F040FB012084F8AE
:101AF000460084F83E0084F83F0084F8400084F8F3
:101B0000410084F8420084F8430084F8440084F8DB
:101B1000450084F83D00002010BD000008B50068B5
:101B20000B49884212D10B48016841F01001016055
:101B30000068002200F01000009011463620FFF7E8
:101B400055FCBDE808403620FFF742BC08BD000048
:101B5000001000404038024070472DE9F041044633
:101B60000068C66805694FF00007A90713D5B107DB
:101B700011D5F91E01610120207720688069800756
:101B8000204602D0FFF7E8FF04E000F0BDF8204651
:101B900000F06CF92777680716D5700714D521680F
:101BA0006FF004000861022020772068806910F43B
:101BB000407F204602D0FFF7CFFF04E000F0A4F8FA
:101BC000204600F053F92777280715D5300713D59D
:101BD00021686FF008000861042020772068C06940
:101BE0008007204602D0FFF7B7FF04E000F08CF832
:101BF000204600F03BF92777E80616D5F00614D505
:101C000021686FF010000861082020772068C06903
:101C100010F4407F204602D0FFF79EFF04E000F062
:101C200073F8204600F022F92777E80708D0F0077C
:101C300006D021686FF001000861204600F07CF9B1
:101C4000280608D5300606D521686FF080000861A7
:101C50002046FFF7EBFE680608D5700606D521681A
:101C60006FF040000861204600F06EF9A8060AD522
:101C7000B00608D521686FF0200008612046BDE855
:101C8000F041FFF7D4BEBDE8F081000030B587B069
:101C9000044614216846FEF7F6FA24680022174924
:101CA00002231748B4F1804F16D0164DAC4211D123
:101CB0000C6844F001040C60096801F00101059111
:101CC000C0210091CDE901326946CDE9032300BF6F
:101CD000FFF7FAF907B030BD0C6844F001040C605E
:101CE000096801F00101059103210091CDE901325C
:101CF0000121CDE903216946EAE7000030380240BE
:101D00000000024000040040704770B5044690F89F
:101D10003C0000260D4601280FD0012084F83C002D
:101D20006AB1042A1DD0082A2FD00C2A3FD00126E0
:101D3000002084F83C00304670BD022070BD206851
:101D400001F08EFA2068816941F008018161206804
:101D5000816921F004018161206881692A69114348
:101D600011E0206801F0ACFA2068816941F400615B
:101D700081612068816921F48061816120688169C5
:101D80002A6941EA02218161D2E7206801F0CEFA96
:101D90002068C16941F00801C1612068C16921F072
:101DA0000401C1612068C1692A69114311E02068FA
:101DB00001F0F0FA2068C16941F40061C161206856
:101DC000C16921F48061C1612068C1692A6941EA61
:101DD0000221C161ACE710B5040003D094F83D00C6
:101DE00010B107E0012010BD002084F83C0020461F
:101DF00000F01EF8022084F83D00211D206801F04B
:101E0000B5F9012084F8460084F83E0084F83F00CC
:101E100084F8400084F8410084F8420084F84300CC
:101E200084F8440084F8450084F83D00002010BD8B
:101E300008B501680B48B1F1804F0BD00A4A9142B6
:101E400007D1016841F002010160006800F0020062
:101E5000009008BD016841F001010160006800F0D8
:101E60000100F5E7403802400004004070470000E0
:101E700010B50446022249B104290ED0082913D016
:101E800094F84100012816D0012010BD94F83E00BE
:101E90000128F9D184F83E200FE094F83F00012892
:101EA000F2D184F83F2008E094F840000128EBD1FB
:101EB00084F8402001E084F841200122206801F0EC
:101EC000C1F916492068164A884201D0904203D1D0
:101ED000436C43F4004343642068884213D0B0F15C
:101EE000804F10D00F4988420DD00F4988420AD048
:101EF0000E49884207D0904205D00D49884202D051
:101F00000C49884204D1816801F00701062903D0F9
:101F1000016841F001010160002010BD0000014096
:101F2000000401400004004000080040000C004094
:101F300000400140001800400249884201D1FEF7EC
:101F400053BD704778070020704718B5034690F8D6
:101F50004200202801D0022018BD61B15AB10120F1
:101F6000186300205863184601F07AFB0028F3D16B
:101F7000196B012901D0012018BD19680A68496848
:101F8000009119680C3151E8002F42F0100241E82D
:101F90000024002CF5D118BD2DE9F043624901273A
:101FA000ADF51D7D884270D1604D614C00262868DA
:101FB000D0B3012842D0022849D0032856D00428A3
:101FC00064D05CA15C48FEF769F92060002866D007
:101FD0005A49594C4FF498763246894668464C9493
:101FE000FEF738F9554D4DA80C3D95E80E00FEF76B
:101FF000A9FD4FF49E773A464DA92846FEF72AF9E7
:1020000005F1A2004EA18046FEF748F9002847D00E
:102010003246494668464C94FEF71CF995E80E0096
:102020004DA802F0C1FE5CE0FFE747A14248FEF781
:1020300035F9206000285AD02F602FE042A13E4899
:10204000FEF72CF92060002851D0022025E03EA1A7
:102050003948FEF723F920603CA13748FEF71EF906
:1020600060602168014342D0032016E039A1324864
:10207000FEF714F920603AA12F48FEF70FF96060CF
:102080002168014333D0042007E036E038A12A4814
:10209000FEF704F9206010B105202860266026E0D4
:1020A00034A14046FEF7FAF858B132464946684630
:1020B0004C94FEF7CFF895E80E004DA802F0C6FE4E
:1020C0000FE02EA14046FEF7E9F880B132464946BE
:1020D00068464C94FEF7BEF895E80E004DA8FEF752
:1020E0008BFC16483A464DA90C38FEF7B3F8FEF7BC
:1020F0001DFDC82210490C480BE0214988420ED131
:1021000020480078492801D11F4807701D491C4804
:102110001E220DF51D7DBDE8F043FFF716BF0DF53E
:102120001D7DBDE8F0830000C007002004000020F2
:102130006400002052454300B005002080000020CC
:10214000436F6E74726F6C004F4B00004552523AF1
:10215000313200002B484D434F4E204F4B000000C2
:102160002B484D434F4E204552523A31000000005B
:102170004154000079697A6875000000426F780068
:1021800008080020AA060020000000207047000078
:10219000F8B5016804460868CA684B6910F00F0F6B
:1021A0004FF0000559D003F0010602F49077374351
:1021B00065D0C10705D0D10503D5616C41F001019F
:1021C0006164410705D5D90703D0616C41F0020174
:1021D0006164810705D5D90703D0616C41F0040122
:1021E0006164010707D502F02001314303D0616C1F
:1021F00041F008016164616C00293AD0800604D581
:10220000900602D5204601F044F920684069616CCF
:10221000C0F38010090700D460B3204601F012F922
:1022200020684069400621D52068143050E8001F1E
:1022300021F0400140E80012002AF5D1E06BA8B17E
:102240006E490165E06BFEF7C8FD002811D0E06B18
:10225000016D01B0BDE8F040084783060FD5930635
:102260000DD52046BDE8F84001F013B92046FFF730
:102270008DFFF8BD2046FFF789FF6564F8BD266B2A
:102280002023012E7DD1C6067BD5D60679D50868D8
:102290004868009048694FF00206400641D5E16B5E
:1022A000086840680004000CE8D0A28D8242E5D99D
:1022B000E085C869B0F5807F2DD020680C3050E8EB
:1022C000001F21F4807140E80012002AF5D1206837
:1022D000143050E8001F21F0010140E80012002AEC
:1022E000F5D12068143050E8001F21F0400140E88B
:1022F0000012002AF5D184F84230256320680C30A2
:1023000050E8001F21F0100140E80012002AF5D12A
:10231000E06BFEF719FD6663A08DE18D401A81B276
:102320002AE0A08DE18D401A81B2E08D0028A5D071
:102330000029A3D022680C3252E8000F20F49070DC
:1023400042E80007002FF5D12068143050E8002F34
:1023500022F0010240E80027002FF5D184F8423036
:10236000256320680C3050E8002F22F0100240E86E
:102370000023002BF5D166632046FFF70DFEF8BD64
:10238000FFE705062BD5150629D594F8410021282D
:10239000F5D1A068B0F5805F01D12069B0B1206AA5
:1023A000411C2162216800784860E08C401E0004D6
:1023B000000CE084E3D12068C16821F08001C16095
:1023C0002068C16841F04001C160D8E7206A0088F8
:1023D000C0F308004860206A801C2062E5E74006E0
:1023E000CDD55006CBD5CA68204622F04002CA603F
:1023F00084F8413000F055F9C1E700003534000899
:1024000070B5040004D094F84100002510B106E036
:10241000012070BD84F84050204600F023F82420AD
:1024200084F841002068C16821F40051C160204651
:1024300001F090F82068016921F490410161206861
:10244000416921F02A0141612068C16841F40051CD
:10245000C1606564202084F8410084F8420065630F
:10246000002070BD2DE9F04786B00446142168466F
:10247000FDF709FFDFF868C10221266859480322E9
:102480000723DFF8648100258F064FF0400A4FF4E0
:10249000806966454DD1534E1436D6F800C04CF0D5
:1024A000100CC6F800C0366806F0100605960668DF
:1024B00046F001060660006800F001000590500239
:1024C0008DE8230069464046CDE90323FEF7FCFD75
:1024D000474E4648C846C6E903597561B561F5617E
:1024E0003562756286E881043046FEF759FD08B111
:1024F000FEF7CAFBA663B4633D4E3C4860367838AD
:102500003060C6E90175C6E903587561B561F561CA
:10251000356230467562FEF743FD08B1FEF7B4FB45
:10252000E663002211462520B463FEF75FFF2520F5
:1025300051E0DFF8C0C066454FD12A4E1036D6F8BC
:1025400000C04CF4003CC6F800C0366806F4003603
:102550000596066846F001060660006800F0010076
:1025600005900C208DE8230069464046CDE9032301
:10257000FEF7AAFD1E4E2048C036B8463060C6E9B8
:102580000175C6E903597561B561F56135624F465C
:1025900030467562FEF704FD08B1FEF775FBE66391
:1025A000B463164E1448C6E903577561B561F56109
:1025B00035621830756286E801053046FEF7F0FC9A
:1025C00008B1FEF761FBA663002211462620B46322
:1025D000FEF70CFF2620FEF7FBFE06B0BDE8F087F5
:1025E000001001403038024000000240B864024050
:1025F000500800200044004088600240700900201C
:1026000070472DE9F843044690F841009846164675
:102610000D46202802D00220BDE8F88385B17EB1A6
:1026200000206064212084F84100FEF771FEA6843A
:102630008146E684A0682027B0F5805F02D003E0E1
:102640000120E9E7206910B12E4600250EE00026A2
:102650000CE08021204601F01EF8A8B9C6B116F89A
:10266000010B21684860E08C401EE084E08C4B4602
:102670004FF00002CDF800800028EAD14FF0400171
:10268000204601F008F840B184F841700320C3E708
:1026900035F8020BC0F30800E3E784F8417000202E
:1026A000BAE7704713460A46014601A001F03AB85E
:1026B00041542B484D434F4E3D302C36302C222573
:1026C00073222C2231383833222C222573222C22DB
:1026D0002573222C300D0A0001A001F023B8000060
:1026E00041542B484D4449530D0A0000014601A0B6
:1026F00001F018B841542B484D5355423D302C221F
:10270000246F632F646576696365732F25732F7358
:1027100079732F70726F706572746965732F72654B
:10272000706F7274220D0A00F0B52DED028B074612
:10273000A3B00E46B0EE408A10EE900AFDF703FFFC
:1027400004460D4618EE100AFDF7FDFE41EC100B95
:102750000A4953EC102B04A80096CDE9024500F07D
:10276000F1FF04A800F015FC024604AB394604A0B2
:1027700000F0D8FF23B0BDEC028BF0BDB0500008D4
:1027800041542B484D5055423D312C22246F632F2C
:10279000646576696365732F25732F7379732F7062
:1027A000726F706572746965732F7265706F727481
:1027B000222C25642C222573220D0A0010B5044614
:1027C000A0B010EE100AFDF7BEFE41EC100B084958
:1027D00053EC102B684600F0B5FF684600F0D9FBBB
:1027E00002466B46214603A000F09CFF20B010BDBE
:1027F0001451000841542B484D5055423D312C2274
:10280000246F632F646576696365732F25732F7357
:1028100079732F70726F706572746965732F72654A
:10282000706F7274222C25642C222573220D0A00ED
:10283000FEE70000114810B5006840B1012809D03A
:1028400002280AD003280BD004280FD011E0FEF78D
:10285000CBF80EE0FEF76CFA0BE0FFF73DFF08E067
:1028600007A20BA10DA0FFF71DFF02E008A0FFF7D4
:102870003DFFBDE810406420FEF7FCBB04000020D3
:10288000486831353738393635353437000000007F
:1028900057686973705F6465763100003131372E97
:1028A00037382E352E31323500000000194808B572
:1028B000016841F480010160016801F48001009128
:1028C000016841F4001101600068002200F400106A
:1028D000009011461020FEF789FD1020FEF778FDCC
:1028E000002211461120FEF781FD1120FEF770FD38
:1028F000002211463A20FEF779FD3A20FEF768FDE6
:10290000002211464620FEF771FDBDE80840462032
:10291000FEF75EBD303802402DE9F04786B0142145
:102920006846FDF7B0FC4D480024016841F0800185
:102930000160016801F080010591016841F0010129
:102940000160016801F001010591016841F0040195
:102950000160016801F004010591016841F0020184
:102960000160016801F002010591016841F4807184
:10297000016000683A4F00F4807005900022302119
:102980003846FEF7C0FCDFF8DC8041F63006002256
:1029900031464046FEF7B7FCDFF8CCA000224FF4EA
:1029A00009615046FEF7AFFCDFF8C09000226221BB
:1029B0004846FEF7A8FC012240215046FEF7A3FC42
:1029C000302000900125CDE9015469463846039432
:1029D000FEF77AFB0096CDE9015469464046039420
:1029E000FEF772FB4FF401600090CDE90154694697
:1029F00050460394FEF768FB4FF4407000904FF48C
:102A0000881001900220029069464046FEF75CFB68
:102A100062200090CDE90154694648460394FEF7D0
:102A200053FBC020009011200394CDE901056946B5
:102A30005046FEF749FB68028DE831006946504672
:102A4000FEF742FB002211461720FEF7CFFC1720AD
:102A5000FEF7BEFC06B0BDE8F0870000303802404B
:102A6000001C024000080240000402400020024016
:102A700010B58AB0002407941C2168460894FDF71D
:102A800002FC19484FF0804101601121C0E9011496
:102A90006321C0E903148461FFF79DF908B1FEF7D3
:102AA000F3F8079407A910480894FEF7C1FF08B18E
:102AB000FEF7EAF86020CDE900040294002269469E
:102AC00009480494FFF721F908B1FEF7DDF8042264
:102AD00069460548FFF719F908B1FEF7D5F802482D
:102AE000FFF7D4F80AB010BDE806002010B58AB090
:102AF000002407941C2168460894FDF7C4FB1A487B
:102B0000184901601121C0E901146321C0E90314CF
:102B10008461FFF760F908B1FEF7B6F8079407A9DA
:102B200011480894FEF784FF08B1FEF7ADF8602065
:102B3000CDE900040294002269460B480494FFF793
:102B4000E4F808B1FEF7A0F8042269460648FFF74A
:102B5000DCF808B1FEF798F80348FFF797F80AB0D9
:102B600010BD000000040040300700201CB5002408
:102B70000F4800940D490194016044F24F61C0E98F
:102B8000011442F20F718461C160FEF799FF08B130
:102B9000FEF77AF80094694605480194FEF748FF6D
:102BA000002801D0FEF770F81CBD000000100040A6
:102BB000780700200C4810B50A4901604FF4E13154
:102BC0004160002181600C22C160C0E90412816172
:102BD000C161FFF715FC002803D0BDE81040FEF7E7
:102BE00053B810BD00100140C00700200C4810B5BC
:102BF0000A4901604FF4E1314160002181600C22FB
:102C0000C160C0E904128161C161FFF7F9FB0028CE
:102C100003D0BDE81040FEF737B810BD00440040B7
:102C2000080800202DE9FF4F5D4A5E4C5E4D5F4E67
:102C300064202DED028B83B04FF4FA7C04EB80030B
:102C4000A3F5805354F8201002EB8007C3F8701EE0
:102C5000A7F5805752F82030C7F8703E2B68904691
:102C6000994200D229603368994200D93160E24626
:102C7000401C5045E2DBDFF838914FF4C8779FEDF8
:102C80004D8ADFF834B100BF04EB870050F8041C14
:102C9000C9F800104FF400714848FEF72FFB0128D7
:102CA000F8D04749072001F0A0FB45480178427859
:102CB0008907890B41EA02218278114344F82710E1
:102CC000C27803799207920B407942EA03220243C9
:102CD00048F82720D9F8000081421DD9081A00EED3
:102CE000100A30682968F8EE400A401A00EE100A0F
:102CF0003448B8EE401A80EE810A20EE080A80EDD2
:102D0000000ABDEEC00A304810EE101A0268511ACF
:102D1000016020D500211DE0401A00EE100A306845
:102D20002968F8EE400A401A00EE100A2548B8EE6D
:102D3000401A80EE810A20EE080A80ED000ABDEEFE
:102D4000C00A214810EE101A026811440160FF29E0
:102D500001DDFF2101600598DBF800107F1C016098
:102D60001A48574501780698017019480168079874
:102D70000160184801780898017085DB1348154AEE
:102D80000290CDE9002B1448114B064A0168044813
:102D900001F088FD03B0BDEC028BBDE8FF8F0000A1
:102DA000A0110020D00900203C00002038000020A5
:102DB0005800002000007F43500000200004024023
:102DC000400000205C000020600000205400002033
:102DD000480000204C00002034000020FEE710B521
:102DE00004460146002000F0E3F82146002000F0F0
:102DF00001F92146002000F01FF92146BDE81040EE
:102E0000002000F037B910B504460146012000F05B
:102E1000CFF82146012000F0EDF82146012000F016
:102E20000BF92146BDE81040012000F023B9000055
:102E300010B580210448FEF761FA0246052001F032
:102E40000FF9104610BD00000004024010B501202B
:102E500000F082F8012000F071F8FFF7E9FF044666
:102E6000002000F06BF8204610BD70B50025012051
:102E700000F072F800248026012000F05FF8FFF7D0
:102E8000D7FF012802D126FA04F00543002000F004
:102E900055F8641CE4B2082CEED3284670BD10B57A
:102EA00000F05AF8012000F049F8BDE81040002079
:102EB00000F044B870B500240546802626FA04F0D8
:102EC000284000F049F8012000F038F8002000F018
:102ED00035F8641CE4B2082CF0D370BD10B50120A5
:102EE00000F03AF8012000F029F80B4C8021204630
:102EF000FEF704FA00280DD0002000F02DF8802104
:102F00002046FEF7FBF900284FF0000002D100F048
:102F100015F8012010BD00000004024010B500208B
:102F200000F00CF8002000F017F8012000F006F87F
:102F3000BDE81040012000F00FB8000010B50246B7
:102F400040210448FEF7DFF9BDE81040052001F0FC
:102F500087B800000004024010B5024680210448F2
:102F6000FEF7D1F9BDE81040052001F079B8000066
:102F70000004024010B50120FFF7EEFF0120FFF72B
:102F8000DDFFFFF755FF04460020FFF7D7FF20467F
:102F900010BD02460020014603E05C2B00D0401C1F
:102FA000491C535C002BF8D17047FEE7704770470F
:102FB00070B50D4B0D4D0C4601280DD0002210218F
:102FC0001846FEF7A0F9012210212846FEF79BF9CA
:102FD00007480068446370BD012210211846FEF7BF
:102FE00092F90022F0E70000001C024000040240B9
:102FF000E806002070B50C460C4B0D4D4FF40061F7
:1030000001280CD001221846FEF77DF9002202218A
:103010002846FEF778F907480068846370BD0022EF
:103020001846FEF770F90122F1E7000000040240A3
:1030300000200240E806002070B50C4C0D46012827
:103040000DD0012220212046FEF75DF9002240210B
:103050002046FEF758F906480068456370BD002217
:1030600020212046FEF74FF90122F0E70020024020
:103070003007002070B50C4C0D4601280DD0002201
:1030800010212046FEF73FF9012220212046FEF7BD
:103090003AF906480068856370BD01221021204678
:1030A000FEF731F90022F0E7000802403007002067
:1030B000FEF734B970B592B030216846FDF7E3F8F9
:1030C00014210CA8FDF7DFF81F480025016841F026
:1030D00080510160006800F0805011901B48016829
:1030E00041F4404101600068022400F44040119026
:1030F00001200090000401908001CDE906400F26D8
:103100000896D820CDE9090404200B906846FEF704
:10311000C3FA08B172B6FEE7FEF79AF908B172B6C3
:10312000FEE74FF4A050CDE90E504FF48050CDE9AA
:103130000C64109005210CA8FEF7C2F9002801D0FC
:1031400072B6FEE712B070BD403802400070004019
:103150000248016841F470010160704788ED00E0A9
:103160000148FEF7FABC000078070020F0B50268BD
:10317000294C2A4D2A4E2B4F2B4B4FF0804CA0420E
:1031800009D0604507D0A84205D0B04203D0B8426C
:1031900001D0984204D122F0700E4A6842EA0E0231
:1031A000A0421BD0604519D0A84217D0B04215D01C
:1031B000B84213D0984211D01C4DA8420ED01C4DDD
:1031C000A8420BD01B4DA84208D01B4DA84205D0E9
:1031D0001A4DA84202D01A4DA84203D122F44075DC
:1031E000CA682A434D6922F080022A4302608A6835
:1031F000C2620A688262A04201D0984201D1096984
:103200000163012141610169C90703D0016921F00E
:1032100001010161F0BD0000000001400004004018
:1032200000080040000C0040000401400040014044
:10323000004401400048014000180040001C0040CC
:103240000020004010B501F01F030121046A9940DD
:103250008C430462016A9A401143016210BD000070
:10326000F0B5036A026A22F00102026242688469D0
:10327000124E24F073050C682C4323F002058B6872
:103280002B430D4DA84201D0B04205D123F00807D1
:10329000CB683B4323F00403A84201D0B04205D1E0
:1032A0004D6922F4407215438A692A434260846161
:1032B000496841630362F0BD000001400004014021
:1032C000F0B5026A036A23F010030362436884695D
:1032D0000D6824F4E64444EA05248D6822F02002B7
:1032E00042EA05120F4D104EA84201D0B04206D15D
:1032F000CF6822F0800242EA071222F04002A84280
:1033000001D0B04207D14D6923F4406343EA8503FD
:103310008D6943EA85034360846149688163026281
:10332000F0BD00000000014000040140F0B5026A59
:10333000036A23F4807303624368C46922F4007251
:1033400024F073050C68124E2C438D6842EA052266
:103350000E4DA84201D0B04206D1CF6822F40062DF
:1033600042EA072222F48062A84201D0B04207D18B
:103370004D6923F4405343EA05138D6943EA05136D
:103380004360C4614968C1630262F0BD000001404E
:103390000004014030B5046A026A22F480520262DD
:1033A0004268C3690D6823F4E64343EA05238D6848
:1033B00024F4005444EA0534084DA84202D0084DD4
:1033C000A84204D14D6922F4804242EA851242604B
:1033D000C36149680164046230BD0000000001401F
:1033E0000004014010B5044601460020FFF7E0FD4F
:1033F00021460020FFF7FEFD21460120FFF71CFEBD
:103400002146BDE810400120FFF734BE10B5044648
:1034100001460120FFF7CCFD21460120FFF7EAFD20
:1034200021460020FFF708FE2146BDE8104000209D
:10343000FFF720BE10B5806B0021C185C184FEF767
:10344000A5FE10BD01680C3151E8002F22F49072E6
:1034500041E80023002BF5D10168143151E8002F19
:1034600022F0010241E80023002BF5D1016B012974
:1034700009D101680C3151E8002F22F0100241E817
:103480000023002BF5D1202180F842100021016398
:10349000704708B590F84210222901D0022008BDDB
:1034A00082684FF480539A4201D1016921B1816A47
:1034B0009A421BD04AB10AE00268816A5268C2F39C
:1034C00008020A80816A891C08E0026972B10268F8
:1034D000526802F07F020A70816A491C8162C18DC4
:1034E000491E0904090CC18503D01BE0026852681B
:1034F000F1E70168CA6822F02002CA600168CA6860
:1035000022F48072CA6001684A6922F001024A61AD
:10351000202180F8421000214163026B012A03D070
:10352000FFF76EF8002008BD016301680C3151E817
:10353000002F22F0100241E80023002BF5D1016892
:103540000A68D20602D50A6849680091818DFEF7A3
:1035500023FDE7E770B5044600680169E26821F4DD
:103560004051114301612169A068E2690843616922
:10357000114308432168CA6849F20C639A43024325
:10358000CA6020684169A26921F440711143416118
:1035900031492068884202D03049884202D1FEF782
:1035A00039F801E0FEF726F8E269002319216425C5
:1035B0003226B2F5004F626828D0A0FB0101930FBC
:1035C0009200FCF711FE0146B0FBF5F06FF0180217
:1035D000504301EB800006EB0010B0FBF5F000F06B
:1035E000F002B1FBF5F002EB0012B1FBF5F06FF069
:1035F0001803584301EB800006EB0010B0FBF5F018
:1036000000F00F0021681044886070BDA0FB01012C
:1036100092185B41FCF7E8FD0146B0FBF5F00201B2
:10362000B1FBF5F06FF01803584301EB800006EB97
:10363000C000B0FBF5F000F0F80002EB4002B1FB77
:10364000F5F0584301EB800006EBC000B0FBF5F04D
:1036500000F00700D6E70000001001400014014010
:1036600081628285C28500214164222180F8421056
:10367000016921B10168CA6842F48072CA600168B8
:103680004A6942F001024A610068C16841F02001C4
:10369000C160002070472DE9F843984617460D4653
:1036A0000446089E24E0701C22D0FDF731FEA0EBFA
:1036B0000800B0421AD8CEB12068C168490717D5B2
:1036C000802D15D0402D13D00168C94309070FD4B0
:1036D00001680025406800902046FFF7B3FE0820EF
:1036E000606484F840500120BDE8F8830320FBE7C4
:1036F0002068006835EA000004D00020B842D2D02B
:103700000020F1E70120F9E70148FEF741BD000084
:10371000C00700200148FEF73BBD0000080800205C
:10372000FEE700000FB4054B10B503A9044A029848
:1037300000F002F910BC5DF814FB000049400008DD
:103740006C0000200FB4084B10B504A902AA03981E
:1037500000F0F2F8044602A9002000F070FC2046B8
:1037600010BC5DF814FB00003F4000080907090E7B
:10377000002804DB00F1E02080F80014704700F01E
:103780000F0000F1E02080F8141D704700487047DA
:103790007000002002E008C8121F08C1002AFAD1F8
:1037A00070477047002001E001C1121F002AFBD1C1
:1037B000704700002DE9FF5F82B00021DDE9043091
:1037C000020DDDF840B0034318D044F61050A2F2C9
:1037D000FF3242431514119801281FD0A5EB0B00AE
:1037E000401C5FEA000A4FF000064E4FDFF83891A8
:1037F000B046504615D5CAF1000413E011980124D3
:103800004AA3012801D16FEA0B010298119AC0E97D
:103810000031C0E9024206B0BDE8F09FCBF10000E4
:10382000DFE704460021404A491842EB0450CDE945
:10383000001012E0E00707D032463B4640464946BA
:10384000FCF702FE8046894632463B461046194642
:10385000FCF7FAFD06460F466410002CEAD1DDE9BC
:103860000401DDE90023BAF1000F06DAFCF7ECFDF4
:1038700042464B46FCF7E8FD05E0FCF7BEFF42463A
:103880004B46FCF7BAFF04460E460022284BFCF7D5
:103890006DFE03D84FF0FF30014607E00022254BB4
:1038A00020463146FCF729FDFDF716F8102409E003
:1038B000002C0ADB0A220023FCF796FC039B303223
:1038C0001A55641E50EA0102F2D1641C039AC4F135
:1038D00011031444119A012A03D0012208430DD187
:1038E0000AE0084304D000204FF0110B119072E75A
:1038F000A3EB0B056D1E0DE05B4504DD4FF00002F0
:1039000005F1010504E003DA4FF00002A5F101051D
:10391000002AECD002981199C0E90231C0E90045B3
:1039200079E70000000014400000F03F3000000084
:103930000000F0430000E03F2DE9FF4F95B09A46AC
:10394000884606460025EEE1252877D10024274643
:10395000F94A0121039400E0044316F8013F203B9B
:1039600001FA03F01042F7D130782A2811D06FF015
:103970002F033078A0F13002092A16D8039A44F0B8
:10398000020402EB820203EB42021044761C039015
:10399000EFE758F8042B0392002A03DA504244F46C
:1039A0000054039044F00204761C30782E2816D17F
:1039B00016F8010F44F004042A280DD06FF02F02EE
:1039C0003078A0F13003092B09D807EB870302EB0D
:1039D0004303C718761CF3E758F8047B761C30784D
:1039E0006C280FD006DC4C2817D068280DD06A2828
:1039F00014D104E0742810D07A280FD10DE044F4DB
:103A000000140AE044F4801401E044F44014727895
:103A1000824202D104F58014761C761C3078662828
:103A20000BD013DC582877D009DC002875D0452846
:103A3000F6D04628F4D047281AD193E118E063283D
:103A400035D0642879D0652812D18BE1702873D0E5
:103A500008DC6728F1D069286FD06E280DD06F2858
:103A600006D1ACE073282CD0752874D0782853D0B8
:103A70005246179990476D1C54E1C4F30250022836
:103A800009D003280DD0D8F8001004280DD00D60FF
:103A900008F1040846E1D8F80010EA17C1E900521D
:103AA000F6E7D8F800100D80F2E70D70F0E718F88F
:103AB000041B8DF8001000208DF80100EB4601205A
:103AC00003E058F804BB4FF0FF3061074FF00001EE
:103AD00002D40DE009F101018946B9420FDA8145AE
:103AE000F8DB1BF809100029F4D108E009F1010105
:103AF00089468142FADB1BF809100029F6D10398A8
:103B00005346A0EB090721463846179A00F080FA81
:103B1000284400EB090507E044E008E10DE01BF84C
:103B2000010B524617999047B9F10109F7D2534654
:103B300021463846179AF2E039E00A21C4F30252CE
:103B40004FF0000B0091022A06D058F8040BC11761
:103B5000032A09D00AE023E008F1070020F0070259
:103B6000F2E80201904605E000B2C117042A01D133
:103B700040B2C117002906DA0A460021404261EB33
:103B800002012D2202E0220504D52B228DF804200B
:103B9000012203E0E20701D02022F7E7914657E037
:103BA0000A2100E010214FF0000B00910BE01021E2
:103BB0004FF0000B44F004040827009103E00820B4
:103BC0004FF0000B0090C4F30252022A05D058F8BF
:103BD000040B0021032A08D008E008F1070020F0B8
:103BE0000702F2E80201904603E080B2042A00D105
:103BF000C0B24FF0000922072AD53278702A07D0C8
:103C0000DDF800C08CF0100C5CEA0B0C05D00EE067
:103C100040228DF80420012208E050EA010306D07A
:103C200030238DF804308DF8052002229146009B48
:103C300083F0080353EA0B030AD150EA010201D1D1
:103C4000620705D530228DF804204FF001097F1E50
:103C50003278582A04D039A20C920CAA02920BE0B6
:103C60003BA2F9E75B46009AFCF7BEFA0C9B9B5C13
:103C7000029A521E0292137050EA0102F2D1029887
:103C800004A9081A00F1200B600702D524F480343F
:103C900000E001275F4502DDA7EB0B0000E00020FC
:103CA00000EB0B01009003984944401A0390E00395
:103CB00006D453462146179A039800F0A9F9054403
:103CC000002706E001A85246C05D179990476D1C79
:103CD0007F1C4F45F6DBE0030CD553462146179A6F
:103CE000039800F095F9054404E0302052461799F6
:103CF00090476D1C0099481E00900029F5DC08E0F3
:103D00000298029952460078491C029117999047EF
:103D10006D1CBBF10001ABF1010BF1DC5BE100F0CC
:103D200065F90544761C307800287FF40DAE19B093
:103D30002846BDE8F08F00000928010030313233F9
:103D400034353637383961626364656600000000D7
:103D500030313233343536373839414243444546C1
:103D600000000000600700D4062708F1070020F0DB
:103D70000700F0E80223804603F0004C5FEA0C00E5
:103D800001D097A009E0200501D596A005E0E00745
:103D900001D095A001E0AFF24C001390307823F0F1
:103DA000004365280CD006DC452809D046281DD0E4
:103DB00047287FD13BE0662818D067287AD136E0C3
:103DC0000021112F01DB112000E0781CCDE900015A
:103DD00004A90CA8FFF7EEFCDDE90D010C9A4FF0E9
:103DE000000B07F10109109200914EE04FF00040E6
:103DF0000097CDE9011004A90CA8FFF7DBFCDDE971
:103E00000D020C9B0F994FF0000B914610930092FE
:103E100011B9791C00EB0109B7EB090003D4C0F11B
:103E2000FF3B07F10109A9EB0700019042E0012FD8
:103E300000DA01270021112F01DD112000E03846B2
:103E4000CDE9000104A90CA8FFF7B4FCDDE90D01E0
:103E50000C9A00914FF0000BB946109221070FD435
:103E6000009A4A4503DA914601E0A9F10109B9F146
:103E7000010F05DD109AA9F10101515C3029F4D040
:103E8000B84202DA10F1040F03DA0121CDE9011082
:103E900010E0002803DC8344A9EB000102E0411C90
:103EA000494500DD8946A0EB0B00401C01904FF016
:103EB00000400290200705D40198484502DB4FF0EE
:103EC000FF30019000208DF84B0002980DF14B0758
:103ED000B0F1004F25D002200C902B200D900298BD
:103EE00000280CDA404202902D200D9007E00A21B4
:103EF0000298FCF76FFB3031029007F8011D0C9916
:103F0000481E0C900029F2DC02980028EFD1791E9F
:103F10000D980870307800F0200040F0450007F858
:103F2000020D11A8C01BC01D02901398007800B1AB
:103F3000012000EB0901019801EBE07102980144B6
:103F40000398401A401E0390E00306D453462146CE
:103F5000179A039800F05CF805441398007818B19C
:103F60005246179990476D1CE00323D553462146CE
:103F7000179A039800F04CF805441BE0BBF1000FC2
:103F800007DB0098584504DD1098179910F80B00CE
:103F900001E0179930205246904701980BF1010B30
:103FA000401E05F10105019004D12E2052461799BB
:103FB00090476D1CB9F10001A9F10109DEDC05E0B3
:103FC00017F8010B5246179990476D1C0299481E2D
:103FD00002900029F4DC53462146179A03989EE686
:103FE0002D0000002B000000200000002DE9F04112
:103FF000044600251E461746880404D405E03946C9
:104000002020B0476D1C641EF9D52846BDE8F0811C
:104010002DE9F041044600251E469046C80301D50F
:10402000302700E02027880404D505E041463846C3
:10403000B0476D1C641EF9D52846BDE8F0810A68BA
:10404000531C0B601070704713B54FF6FF730122BD
:1040500069460248FEF7D5FA00981CBDC00700204B
:10406000C0EBC00000EB8001002001E000BF401C5D
:104070008842FBD3704700002DED028B84B0FDF722
:1040800055F9FFF717F8FEF747FCFEF70FFCFEF7B0
:1040900091FDFEF7EDFCFEF729FDFEF7A7FDFEF70B
:1040A00065FD00218F48FDF7E3FE04218D48FDF7F3
:1040B000DFFE00218C48FDF7DBFE04218A48FDF776
:1040C000D7FEFA2289498A48FDF73FFF87491E2219
:1040D000FA318848FDF739FF8748FDF7F1FC00F019
:1040E000CDF94FF47A60FCF7C5FFDFF810824FF08E
:1040F00000094FF47A760A279FED818AF2EE048A4E
:10410000D8F80400042825DCFEF794FBD8F8040056
:104110000428F5D17BA17F48FFF714FB7D48FCF70D
:10412000CFF882B233467B497248FEF76AFA794883
:10413000FCF7C6F882B2334676496E48FEF761FA5C
:104140007448FCF7BDF882B2334672496948FEF7FD
:1041500058FAD5E7444605280ED16AA16D48FFF705
:10416000F1FA6C48FCF7ACF882B233466949614811
:10417000FEF747FA0620606000F04EFE00F0A4FE55
:10418000FCF7A2FC20780028BAD06349C1F800905F
:1041900000F042FE5FF00A05FCF7AAFD84ED020A7A
:1041A00020EE080A5DA15B4820EE280ABDEEC00A99
:1041B00010EE102AFFF7C6FA5648FCF781F882B2D3
:1041C000334654494B48FEF71CFA94ED020A57A0B7
:1041D00020EE080AFEF7F2FA03AB01AA02A968462C
:1041E000FEF720FD9DF8080008B39DF80C00F0B123
:1041F00051482169009A00F5007C40F821209DED8E
:10420000010A6069491CB8EEC00A0CEB800C401C26
:104210008CED000AD4F80CC06D1E6244E260D4ED4F
:10422000060A30EE200A84ED060AC4E90410002DC7
:10423000B2DCE068B0FBF7F5642D00DD4C2594EDB1
:10424000060A294639A0C0EE280A94ED020A20EE9B
:10425000080AFEF769FA94ED020A30A12D4820EE13
:10426000080A20EE280ABDEEC00A10EE102AFFF759
:1042700069FA2848FCF724F882B2334625491D48DC
:10428000FEF7BFF92A462DA12248FFF75BFA214825
:10429000FCF716F882B233461E491648FEF7B1F90C
:1042A00094ED060A29A1BDEEC00A10EE100A90FB9B
:1042B000F7F21848FFF746FA1648FCF701F882B201
:1042C000334614490B48FEF79CF99FED240AC4F8C5
:1042D0000C9084ED060AC4F81490C4F8109084F889
:1042E00000900DE7E806002030070020B005002010
:1042F000C0070020080800207807002000000020E8
:104300009A99993F6A302E76616C3D313030FFFFCB
:10431000FF000000C80600207400002078302E76D0
:10432000616C3D2564FFFFFF000000005768697362
:10433000705F646576310000B00100206E312E762A
:10434000616C3D2564FFFFFF000000006E322E7699
:10435000616C3D2564FFFFFF0000000000000000CD
:1043600010B50446FEF7BAFDAE20FEF7A3FDFEF73A
:104370006DFD68B92046FEF79DFDFEF767FD38B973
:10438000FEF7ACFDAF20FEF795FDFEF75FFD18B11F
:10439000FEF7C4FD002010BDFEF767FD04460120B6
:1043A000FEF77DFDFEF7BAFD204610BD70B50C4648
:1043B0000546FEF793FDAE20FEF77CFDFEF746FDB9
:1043C00058B92846FEF776FDFEF740FD28B920468D
:1043D000FEF770FDFEF73AFD18B1FEF79FFD0020D5
:1043E00070BDFEF79BFD012070BD70B505460C4603
:1043F0000020FFF7B5FF0120FFF7B2FFFEF76EFDCB
:10440000AE20FEF757FDFEF7B5FD98BB2846FEF738
:1044100051FDFEF7AFFD68BBFEF760FDAF20FEF774
:1044200049FDFEF7A7FD28BBFEF71FFD2070002009
:10443000FEF735FDFEF719FD60700020FEF72FFD39
:10444000FEF713FDA0700020FEF729FDFEF70DFD1D
:10445000E0700020FEF723FDFEF707FD207100202D
:10446000FEF71DFDFEF701FD60710120FEF717FD4F
:10447000FEF754FDBDE87040FEF750BD2DE9FE4F3C
:104480004FF47A7400F0EAF9C0210220FFF78EFFA2
:1044900000287DD00A20FCF7EDFD00210320FFF766
:1044A00085FF002875D0B3A1B648FFF74BF9B54892
:1044B000FBF706FF82B22346B249B348FEF7A1F8E4
:1044C0000A20FCF7D7FD00210420FFF76FFF00282A
:1044D0007DD0AEA1AB48FFF735F9AA48FBF7F0FE57
:1044E00082B22346A749A848FEF78BF80A20FCF7BA
:1044F000C1FD00210520FFF759FF002868D0A7A1C2
:10450000A048FFF71FF99F48FBF7DAFE82B2234667
:104510009C499D48FEF775F80A20FCF7ABFD002189
:104520000620FFF743FF00287DD00A20FCF7A2FDFC
:104530000F210820FFF73AFF002875D09BA1914872
:10454000FFF700F98F48FBF7BBFE82B223468D4987
:104550008D48FEF756F88B48FBF7B2FE82B2234631
:1045600088498948FEF74DF88648FBF7A9FE82B2D4
:10457000234684498448FEF744F80A20FCF77AFD74
:1045800003210920FFF712FF002879D00A2001E05B
:1045900078E079E0FCF76EFD27210A20FFF706FF9F
:1045A00000287DD085A17748FFF7CCF87548FBF748
:1045B00087FE82B2234673497348FEF722F871489A
:1045C000FBF77EFE82B223466E496F4801E05DE054
:1045D0005EE0FEF716F86B48FBF772FE82B22346E8
:1045E00068496948FEF70DF80A20FCF743FD2421CD
:1045F0000C20FFF7DBFE002854D00A20FCF73AFD20
:1046000024210D20FFF7D2FE00284DD00A20FCF710
:1046100031FD7F211020FFF7C9FE002846D00A2077
:10462000FCF728FD01E035E036E068A15548FFF7CA
:1046300089F85448FBF744FE82B225462346514987
:104640005148FDF7DEFF4F48FBF73AFE82B22B469A
:104650004C494D48FDF7D5FF4A48FBF731FE82B281
:104660002B4648494848FDF7CCFF5CA0FFF75AF8B5
:104670000024604FDFF88081DFF88091604E48E0D1
:104680000CE00DE05FA012E05FA010E05FA00EE084
:104690005FA00CE05FA00AE05FA008E05FA006E07A
:1046A0005FA004E05FA002E05FA000E05FA0FFF772
:1046B00039F8E7E6DFF878B14FF4007A514658460A
:1046C000FCF71CFE0128F9D05A490720FFF78DFEA0
:1046D0005848017842788907890B41EA022182789B
:1046E000114348F82410C27803799207920B40795D
:1046F00042EA03220243504840F8242038688142AD
:1047000000D23960D9F80020914201D9C9F80010CF
:10471000641C30688442CDDB4A48484A48498DE8E9
:104720000700494B344A4448316800F0BBF847A1C0
:104730001448FFF707F81348FBF7C2FD82B22B4677
:1047400010491148FDF75DFF0E48FBF7B9FD82B235
:104750002B460C490C48FDF754FF0A48FBF7B0FD07
:1047600003B02B46BDE8F04F82B206490648FDF77C
:1047700048BF00006A302E76616C3D3130FFFFFF8C
:1047800000000000C8060020080800206A302E76CD
:10479000616C3D3230FFFFFF000000006A302E7672
:1047A000616C3D3330FFFFFF000000006A302E7661
:1047B000616C3D3430FFFFFF000000006A302E7650
:1047C000616C3D3530FFFFFF000000006A302E763F
:1047D000616C3D3630FFFFFF000000000D0A204DE8
:1047E000415833303130322020696E697420200DF9
:1047F0000A0000003C000020D00900203800002002
:1048000034000020310A0000320A0000330A0000A0
:10481000340A0000350A0000360A0000370A00009A
:10482000380A0000390A000031300A0031310A002C
:104830000004024040000020A0110020540000208D
:10484000500000204C000020480000206A302E76E6
:10485000616C3D3830FFFFFF0000000010B54021C3
:104860000920FFF7A3FD4021BDE810400920FFF714
:104870009DBD2DE9F8418046DDE907060090174609
:104880000C46099D404600F0EBF933463A46214676
:10489000404600F01BFA2068A84200DB2846206052
:1048A000BDE8F8812DE9FF4FBFB00E4600211C4640
:1048B00008464C9D04E03F9A52F82020401C1144C9
:1048C000B042F8DBB1FBF6F20020E04906E03F9B86
:1048D00053F820309B1A41F82030401CB042F6DBE0
:1048E00000204FF4F87C00BF01EB800251F820302B
:1048F0005768E3463B44D2E902723A441A44D3175C
:1049000002EB9372921041F82020401C5845EBDBDB
:10491000CF4A00204FF4F77301EB800751F820C015
:104920007F688946A7EB0C0742F82070401C98422C
:10493000F2DD002002EB800752F820107F689A46D3
:10494000394401EBD171491042F82010401C504508
:10495000F0DBC04F0020964600230146421D08E0D0
:10496000A1EB00085EF821C037F81880491C0CFB49
:1049700018339142F4DB40F27A4193FBF1F14EF8A7
:104980002010401C7346B0F5F47FE5DD0022104690
:104990004FEA0A0753F82010002900DC4942401C66
:1049A0000A445045F6DD40F2EF1392FBF3F0052286
:1049B00008218DE80700A64A3DA912A8FFF759FF74
:1049C00000223D9B12A89646022B1ADB012109E02A
:1049D00000EB810C50F821705CF804CC491CA7EB6B
:1049E0000C073A449942F3DB5B1E92FBF3F141F270
:1049F000707292FBF1F24D990A604E9A012111708A
:104A000005E04D9A944911604E9A82F800E0002129
:104A10003D9F06E050F8213024AA9B1C42F821302B
:104A2000491CB942F6DB0020C8460BE03F9951F81B
:104A3000201048F82010419951F82020874941F86A
:104A40002020401CB042F1DB0022134628E000BFCA
:104A500024A84FF0010950F823004FF08076411D43
:104A600051451CDCA0F1050CBCF1000F17DD401F07
:104A70000FE000BF58F820C0B44509DAB9F1000FC3
:104A800001D04FF0000966460DF10C0C4CF82300E4
:104A9000401C8842EEDBB9F1000F00D1521C5B1CB8
:104AA000BB42D5DB022A06DA6B48206085F800E0BD
:104AB00043B0BDE8F08FDFF8A4C1002008EB80010F
:104AC00058F820304E68E1463344D1E90261314460
:104AD0001944CB1701EB9371891048F820100CEBA7
:104AE00080035CF820605F683E44D3E902733B4476
:104AF0003344DE1703EB96739B104CF82030401CB8
:104B00005845DBDB00200DF1D40B3E9000234BF821
:104B10002030401C0528F9DB00204FF4FA7309E02F
:104B200003A951F82010994203DD4B482060002072
:104B30008AE0401C9042F3DB0023A2F1010A61E00D
:104B400003A800EB830650F823E076684FF07F421D
:104B5000A6EB0E0011463B900A2852DD7046CC466B
:104B60000DE000BF58F820708F4201DD39463C90BF
:104B70005CF82070974201DD3A463390401C864233
:104B8000F0DC59F826C059F82E000290ACEB00007A
:104B9000DDF8CCC0ACEB0E0778433B9F90FBF7F7FA
:104BA000029807EB000C339F59F82770A7EB0C070E
:104BB000219758F8260058F82E60DDF8F0C0801BC9
:104BC000ACEB0E0778433B9F90FBF7F03044339EED
:104BD000219F58F826604F43301A5043F911C011F5
:104BE00000280EDD3E9A052A0BDA51B101EB810156
:104BF000890091FBF0F23E984BF820203E98401C33
:104C00003E905B1C53459BDB58463E9900F094F860
:104C10003E9800EBD070401001280ADD0BEB8002BB
:104C20005BF8200052F8042C104400EBD0704010C8
:104C300001E05BF82000C11EB529BFF476AF05493D
:104C40003E31085C20600120287031E730210020CF
:104C500070190020344F000819FCFFFF00290020C4
:104C60002DE9F043814600240120DDF81C805E1E02
:104C70000C6026E052F82070474521DD02EB8004ED
:104C800054F8044CA7421BDD012500E06D1C4419BB
:104C90009C4203DA52F824C06745F7D0054452F825
:104CA0002550AF420ADD0D680F2D07DA4FEA850C5B
:104CB0006D1C0D6049F80C00601C02E0204600E00D
:104CC000401CB042D6DBBDE8F08300002DE9F04384
:104CD0001E4613460C460A6805460146184600F073
:104CE00045F84FF0FF3840461CE00A46411CC6F12B
:104CF0000009216013E000BF55F82170431C19D052
:104D000055F82030FB1AB34201DC4B4506DA236824
:104D10004FEA830C5B1C236045F80C70491C9142E0
:104D2000EADB401C21688142DFDC2846BDE8F04315
:104D300000F002B84346E5E730B5012312E000BFBA
:104D400050F823401A4602E040F82250521E002A32
:104D500005DD00EB820555F8045CA542F4DC40F863
:104D600022405B1C8B42EBDB30BD0000F0B5012420
:104D700016E000BF51F82450234602E041F82360BA
:104D80005B1E002B09DD01EB830650F8257056F8F9
:104D9000046C50F826C06745F0DC41F82350641CD1
:104DA0009442E7DBF0BD00000FB4F0B5CFB006468B
:104DB0004FF49E752A4655A96846A49CFBF74AFA0B
:104DC00013A739462046FBF769FA040017D0384686
:104DD000FBF776FA0444FBF739FA006800E0641C3C
:104DE000217811B1415C2029F9D12178405C20283B
:104DF00005D12046FBF774FA009001204E902A4618
:104E000069463046FBF726FA4FB0F0BC5DF814FB5C
:104E1000226D6F7665223A000B480068042807D09F
:104E2000022808D0032809D001280AD0FBF76BBE5E
:104E30003220FDF7E8BF3220FEF7E8BA3220FEF755
:104E4000D1BA3220FDF7CBBF740000200FB4F0B50B
:104E5000EBB0064600208DF8D0014FF49E75C09C43
:104E60002A4671A919A8FBF7F5F914A73946204677
:104E7000FBF714FA040018D03846FBF721FA0119A1
:104E800000206B4602E01A54401C491C0A781AB1F3
:104E9000222A01D06428F6DB9DF8000028B11946CB
:104EA0001CA8FBF714FA012067902A4619A930467E
:104EB000FBF7D0F96BB0F0BC5DF814FB2274657899
:104EC00074223A220000000010B50A4A0AA11446D2
:104ED00002F5C960FEF736FC0B48FBF7F1F982B228
:104EE0004FF47A7308490948FDF78BFB0848C46101
:104EF00010BD00008000002074302E7478743D22B4
:104F0000257322FFFFFF0000C806002008080020CC
:104F10000000002000061016000610160000000019
:104F20000000000001020304060708090000000059
:104F300001020304290014010002140129000000E9
:104F40000000000000000000000000000000000061
:104F50000000000000000000000000000000000051
:104F60000000000000000000000000000000000041
:104F700000005F5F5F6060606161616161626262E9
:104F800062626363636363636363646464646464ED
:104F900064646464646464646464646464646363D3
:104FA00063636363636362626262626261616161DF
:104FB000606060605F5F5F5E5E5E5D5D5D5C5C5C0F
:104FC0005B5B5A5A59595958585757565655555464
:104FD00054535252515150504F4E4E4D4C4C4B4ADF
:104FE0004A494848474645454443424241403F3E7E
:104FF0003E3D3C3B3A393838373635343332313040
:105000002F2E2D2C2B2A2928272625242322211F29
:105010001E1D1C1B1A19171615141311100F0E0C38
:105020000B0A09070605030201000040404040400A
:10503000404040404141414141404040404040406B
:105040004040404040404040404040050202020293
:10505000020202020202020202020220202020209A
:105060002020202020020202020202029090909052
:105070009090101010101010101010101010101030
:105080001010101010100202020202028888888894
:105090008888080808080808080808080808080890
:1050A0000808080808080202020240002B50000805
:1050B0007B5C2273657276696365735C223A5B7B05
:1050C0005C22736572766963655F69645C223A5C31
:1050D000226D63755F646174615C222C5C22707266
:1050E0006F706572746965735C223A7B5C225465EB
:1050F0006D705C223A252E31662C5C2248525C226F
:105100003A25642C5C22424F5C223A252E31667D82
:105110007D5D7D007B5C2273657276696365735C7F
:10512000223A5B7B5C22736572766963655F6964B2
:105130005C223A5C226D63755F646174615C222C51
:105140005C2270726F706572746965735C223A7B61
:105150005C2254656D705C223A252E31667D7D5D42
:105160007D00000084510008000000207400000051
:1051700094370008F8510008740000205C340000E7
:10518000A43700080000000000000000000000003C
:10519000000000000000000000000000000000000F
:1051A00000000000010000001000000000000000EE
:1051B0000024F40000000000F401000000000000E2
:1051C000FFFF0300000000000000000000000000DE
:1051D00000000000000000000000000000000000CF
:1051E00000000000000000000000000000000000BF
:0851F0000000000000000000B7
:04000005080001AD41
:00000001FF
